:100000000C9462000C948A000C948A000C948A0070
:100010000C948A000C948A000C948A000C948A0038
:100020000C948A000C948A000C948A000C948A0028
:100030000C948A000C948A000C948A000C948A0018
:100040000C9497030C948A000C9465030C943F0362
:100050000C948A000C948A000C948A000C948A00F8
:100060000C948A000C948A000000000023002600F3
:10007000290000000008000201000003040700003E
:1000800000000000000000000000250028002B00F8
:1000900000000000240027002A00040404040404D3
:1000A0000404020202020202030303030303010227
:1000B00004081020408001020408102001020408F6
:1000C0001020E10311241FBECFEFD8E0DEBFCDBF6B
:1000D00011E0A0E0B1E0E8EDFCE002C005900D9277
:1000E000A633B107D9F722E0A6E3B1E001C01D9223
:1000F000A633B207E1F710E0C2E6D0E004C02197D2
:10010000FE010E943D06C136D107C9F70E94720464
:100110000C946A060C940000E7E4F1E0A089B18930
:1001200082E08C93A485B5851C92A685B7858FEC5B
:100130008C93108EA489B58986E08C93A289B389AB
:100140008C9180618C93A289B3898C9188608C9307
:10015000A289B3898C9180688C930288F389E02D01
:1001600080818F7D80830895CF93DF9390E0FC01A1
:10017000E255FF4F2491FC01E656FF4F84918823FE
:10018000C1F090E0880F991FFC01E057FF4FC59127
:10019000D491FC01EA57FF4FA591B4919FB7F89411
:1001A0008881E22FE0958E2388838C91E823EC935D
:1001B0009FBFDF91CF910895CF92DF92EF92FF9290
:1001C0000F931F93CF93DF936C017A018B01C0E0F3
:1001D000D0E0CE15DF0589F0D8016D918D01D601F3
:1001E000ED91FC910190F081E02DC6010995892BDC
:1001F00011F47E0102C02196ECCFC701DF91CF91AF
:100200001F910F91FF90EF90DF90CF900895FC0128
:10021000918D828D981761F0828DDF01A80FB11D3D
:100220005D968C91928D9F5F9F73928F90E0089561
:100230008FEF9FEF0895FC01918D828D981731F01B
:10024000828DE80FF11D858D90E008958FEF9FEF6F
:100250000895FC01918D228D892F90E0805C9F4F45
:10026000821B91098F739927089587E491E00E947A
:10027000290121E0892B09F420E0822F0895FC0157
:10028000848DDF01A80FB11DA35ABF4F2C91848D1F
:1002900090E001968F739927848FA689B7892C9354
:1002A000A089B1898C9180648C93938D848D9813EF
:1002B00006C00288F389E02D80818F7D80830895B8
:1002C000EF92FF920F931F93CF93DF93EC0181E0A6
:1002D000888F9B8D8C8D981305C0E889F989808162
:1002E00085FD24C0F62E0B8D10E00F5F1F4F0F739E
:1002F0001127E02E8C8DE8120CC00FB607FCFACF48
:10030000E889F989808185FFF5CFCE010E943F0100
:10031000F1CF8B8DFE01E80FF11DE35AFF4FF08204
:100320000B8FEA89FB898081806207C0EE89FF8993
:100330006083E889F98980818064808381E090E02E
:10034000DF91CF911F910F91FF90EF900895CF9380
:10035000DF93EC01888D8823C9F0EA89FB898081CD
:1003600085FD05C0A889B9898C9186FD0FC00FB69F
:1003700007FCF5CF808185FFF2CFA889B9898C91E0
:1003800085FFEDCFCE010E943F01E7CFDF91CF91F6
:10039000089580E090E0892B29F00E9435018111B9
:1003A0000C940000089590E0FC01EE58FF4F24915A
:1003B000FC01E255FF4F3491FC01E656FF4FE491FA
:1003C000EE23B9F1222339F1233091F038F42130B2
:1003D000A9F0223001F584B58F7D12C0273091F04D
:1003E0002830A1F02430B9F4809180008F7D03C0C3
:1003F000809180008F77809380000DC084B58F77C7
:1004000084BD09C08091B0008F7703C08091B00097
:100410008F7D8093B000F0E0EE0FFF1FE859FF4F93
:10042000A591B491EC913E2381E090E021F480E02D
:10043000089580E090E008953FB7F89480913B01E3
:1004400090913C01A0913D01B0913E0126B5A89B41
:1004500005C02F3F19F00196A11DB11D3FBFBA2F56
:10046000A92F982F8827820F911DA11DB11DBC01B6
:10047000CD0142E0660F771F881F991F4A95D1F77B
:1004800008958F929F92AF92BF92CF92DF92EF9298
:10049000FF926B017C010E941C024B015C01C114A4
:1004A000D104E104F104F1F00E941C02DC01CB0153
:1004B00088199909AA09BB09883E9340A105B1058D
:1004C00070F321E0C21AD108E108F10888EE880E25
:1004D00083E0981EA11CB11CC114D104E104F104F5
:1004E00019F7DDCFFF90EF90DF90CF90BF90AF90E6
:1004F0009F908F9008952FB7F89460913701709175
:1005000038018091390190913A012FBF08950F93DE
:100510001F93CF938C01FC0181810E94D30101972D
:1005200011F4C2E001C0C0E0F80182810E94D30151
:10053000019709F4CF5F8C2FCF911F910F910895F0
:100540000E9443066115710579F0FB0101900020BE
:10055000E9F73197AF01461B570BDC01ED91FC9198
:100560000280F381E02D099480E090E008954F929D
:100570005F926F927F92EF92FF920F931F93CF93B0
:10058000DF93CDB7DEB7A1970FB6F894DEBF0FBEED
:10059000CDBF7C01FA01CB0119A2223008F42AE078
:1005A0008E010F5D1F4F422E512C612C712CBF010B
:1005B000A30192010E944806F901CA0101501109E4
:1005C0006A3014F4605D01C0695CD8016C93232B20
:1005D000242B252B61F7B801C7010E94A202A19626
:1005E0000FB6F894DEBF0FBECDBFDF91CF911F9144
:1005F0000F91FF90EF907F906F905F904F900895D4
:10060000CF92DF92EF92FF92CF93DF936C01990F1D
:10061000EE08FF08F7FE1CC0E0914701F091480189
:100620000190F081E02D6DE287E491E00995EC0105
:1006300044275527BA014C195D096E097F092AE044
:1006400087E491E00E94B7027C01EC0EFD1E08C019
:100650002AE0B701A60187E491E00E94B7027C017D
:100660006FE171E087E491E00E94A2028E0D9F1D70
:10067000DF91CF91FF90EF90DF90CF9008951F9280
:100680000F920FB60F9211242F933F934F935F93C6
:100690006F937F938F939F93AF93BF93EF93FF934A
:1006A00087E491E00E943F01FF91EF91BF91AF91EC
:1006B0009F918F917F916F915F914F913F912F917A
:1006C0000F900FBE0F901F9018951F920F920FB6AC
:1006D0000F9211242F938F939F93EF93FF93E091A9
:1006E0005701F09158018081E0915D01F0915E0128
:1006F00082FD12C09081809160018F5F8F73209185
:100700006101821751F0E0916001F0E0E95BFE4F7A
:10071000958F8093600101C08081FF91EF919F913F
:100720008F912F910F900FBE0F901F9018951F92D1
:100730000F920FB60F9211242F933F938F939F9395
:10074000AF93BF938091370190913801A091390107
:10075000B0913A013091360123E0230F2D3720F478
:100760000196A11DB11D05C026E8230F0296A11D0B
:10077000B11D209336018093370190933801A093E7
:100780003901B0933A0180913B0190913C01A091D5
:100790003D01B0913E010196A11DB11D80933B0129
:1007A00090933C01A0933D01B0933E01BF91AF9166
:1007B0009F918F913F912F910F900FBE0F901F909F
:1007C000189510924A011092490188EE93E0A0E03A
:1007D000B0E080934B0190934C01A0934D01B093F6
:1007E0004E0184E091E0909348018093470185ECAD
:1007F00090E0909354018093530184EC90E09093A7
:1008000056018093550180EC90E0909358018093BD
:10081000570181EC90E090935A018093590182EC4A
:1008200090E090935C0180935B0186EC90E0909364
:100830005E0180935D01109260011092610110923F
:100840006201109263011092EA011092EB01109282
:10085000EC011092ED011092EE011092EF01109256
:10086000F0011092F1011092F2011092F301109236
:10087000F4011092F5011092F6011092F701109216
:10088000F8011092F9011092350285E080932C0254
:1008900083E080932D0284E080932E0282E0809397
:1008A0002F020E94B40080912D020E94B40080911A
:1008B0002E020E94B40080912F020E94D30121E0F9
:1008C000892B09F420E0209334028CE292E00E940C
:1008D000870280933102809330021092330210928B
:1008E00032020895789484B5826084BD84B58160B5
:1008F00084BD85B5826085BD85B5816085BD8091EB
:100900006E00816080936E00109281008091810062
:10091000826080938100809181008160809381005A
:10092000809180008160809380008091B10084601C
:100930008093B1008091B00081608093B00080917D
:100940007A00846080937A0080917A00826080933C
:100950007A0080917A00816080937A0080917A0099
:10096000806880937A001092C10010922802109241
:10097000290210922A0210922B021092E601109284
:10098000E7011092E8011092E90160ED77E080E064
:1009900090E00E94410287E491E0909327028093C7
:1009A00026020E948C000E947B026093E6017093F5
:1009B000E7018093E8019093E90160E171E08091A3
:1009C0002602909127020E94A2026AE070E080E075
:1009D00090E00E94410281E08093FA010E948C0025
:1009E00084EFC82EDD24D394E12CF12C0E947B02ED
:1009F000672B682B692B41F40E947B0262307105E2
:100A00008105910508F40BC10E947B0260934301AC
:100A100070934401809345019093460180903F017B
:100A200090904001A0904101B09042016815790575
:100A30008A059B0540F460933F01709340018093C9
:100A400041019093420180903F0190904001A0901D
:100A50004101B09042019B01AC01281939094A09B2
:100A60005B0949015A013AEF83169104A104B104CC
:100A700008F4D5C060933F01709340018093410119
:100A800090934201C092F201D092F301E092F401FE
:100A9000F092F5011092F6011092F7011092F80110
:100AA0001092F9018091EA019091EB01A091EC0183
:100AB000B091ED018093EE019093EF01A093F001CE
:100AC000B093F1010E947B026093EA017093EB0105
:100AD0008093EC019093ED010E947B026093E6010C
:100AE0007093E7018093E8019093E9010E947B02F3
:100AF0004B015C0162E271E0809126029091270235
:100B00000E94A2022AE041E050E060E070E08091A3
:100B10002602909127020E94B70269E271E080915B
:100B20002602909127020E94A2022AE0B501A401A8
:100B300080912602909127020E94B7026BE271E039
:100B400080912602909127020E94A2028091EA01E0
:100B50009091EB01A091EC01B091ED01B501A401E0
:100B6000481B590B6A0B7B0B2AE08091260290915F
:100B700027020E94B7026BE271E0809126029091F9
:100B800027020E94A2024091EA015091EB0160917C
:100B9000EC017091ED018091EE019091EF01A09137
:100BA000F001B091F101481B590B6A0B7B0B2AE055
:100BB00080912602909127020E94B7026DE271E0B7
:100BC00080912602909127020E94A2020E947B023D
:100BD000AB01BC012AE080912602909127020E947D
:100BE000B702A0902602B09027026FE271E0C50123
:100BF0000E94A2026FE171E0C5010E94A20265E0BD
:100C000070E080E090E00E9441020E947B026093CD
:100C1000EA017093EB018093EC019093ED018CE27B
:100C200092E00E94870280933102909130029817DF
:100C3000D9F09330A9F4813031F48091320290914F
:100C40003302019607C0823059F4809132029091AC
:100C50003302019790933302809332020E94000383
:100C6000809131028093300261E070E080E090E09A
:100C70000E9441020E94C901B9CEEE0FFF1F0590EC
:100C8000F491E02D099481E090E0F8940C946A06C8
:100C9000A1E21A2EAA1BBB1BFD010DC0AA1FBB1F80
:100CA000EE1FFF1FA217B307E407F50720F0A21BF2
:100CB000B30BE40BF50B661F771F881F991F1A945F
:100CC00069F760957095809590959B01AC01BD0189
:080CD000CF010895F894FFCF55
:100CD800000000006001DC00290107011B01A701D9
:100CE800564D4450565F317C315F564D4450560D39
:100CF8000A00564D4450455F003A323A007C005F86
:060D0800564D4450450069
:107800000C94343C0C94513C0C94513C0C94513CE1
:107810000C94513C0C94513C0C94513C0C94513CB4
:107820000C94513C0C94513C0C94513C0C94513CA4
:107830000C94513C0C94513C0C94513C0C94513C94
:107840000C94513C0C94513C0C94513C0C94513C84
:107850000C94513C0C94513C0C94513C0C94513C74
:107860000C94513C0C94513C11241FBECFEFD8E036
:10787000DEBFCDBF11E0A0E0B1E0ECE9FFE702C060
:1078800005900D92A230B107D9F712E0A2E0B1E065
:1078900001C01D92AD30B107E1F70E942D3D0C945F
:1078A000CC3F0C94003C982F959595959595959582
:1078B000905D8F708A307CF0282F295A8091C0000B
:1078C00085FFFCCF9093C6008091C00085FFFCCF60
:1078D0002093C6000895282F205DF0CF982F809127
:1078E000C00085FFFCCF9093C6000895EF92FF92F1
:1078F0000F931F93EE24FF2487018091C00087FD22
:1079000017C00894E11CF11C011D111D81E4E8164B
:1079100082E4F8068FE0080780E0180770F3E09132
:107920000401F091050109958091C00087FFE9CF1E
:107930008091C6001F910F91FF90EF9008950E94D3
:10794000763C982F8091C00085FFFCCF9093C600B5
:1079500091362CF490330CF09053892F089597555D
:10796000892F08951F930E949F3C182F0E949F3CCF
:107970001295107F810F1F9108951F93182F882350
:1079800021F00E94763C1150E1F71F9108951F935A
:10799000182F0E94763C803249F0809103018F5F5E
:1079A000809303018530C1F01F9108958091C0003C
:1079B00085FFFCCF84E18093C6008091C00085FFE5
:1079C000FCCF1093C6008091C00085FFFCCF80E102
:1079D0008093C6001F910895E0910401F091050184
:1079E00009951F9108950E94763C803241F0809164
:1079F00003018F5F80930301853081F008958091AA
:107A0000C00085FFFCCF84E18093C6008091C00058
:107A100085FFFCCF80E18093C6000895E0910401CA
:107A2000F09105010995089540E951E08823A1F0FE
:107A30002D9A28EE33E0FA013197F1F721503040CA
:107A4000D1F72D9828EE33E0FA013197F1F7215064
:107A50003040D1F7815061F708953F924F925F9285
:107A60006F927F928F929F92AF92BF92CF92DF924E
:107A7000EF92FF920F931F93CF93DF93000080E16B
:107A80008093C4001092C50088E18093C10086E015
:107A90008093C2005098589A259A81E00E94143D24
:107AA00024E1F22E9EE1E92E85E9D82E0FE0C02ECA
:107AB00010E1B12EAA24A394B1E49B2EA6E58A2E50
:107AC000F2E57F2EE0E26E2E79E4572E63E5462E36
:107AD00050E5352E0E94763C8033B1F18133B9F107
:107AE000803409F46FC0813409F476C0823409F41B
:107AF00085C0853409F488C0803531F1823521F1A3
:107B0000813511F1853509F485C0863509F48DC0BC
:107B1000843609F496C0843709F403C1853709F423
:107B200072C1863709F466C0809103018F5F80932C
:107B30000301853079F6E0910401F0910501099582
:107B40000E94763C803351F60E94F33CC3CF0E94E2
:107B5000763C803249F78091C00085FFFCCFF092DF
:107B6000C6008091C00085FFFCCF9092C600809136
:107B7000C00085FFFCCF8092C6008091C00085FFC9
:107B8000FCCF7092C6008091C00085FFFCCF609250
:107B9000C6008091C00085FFFCCF5092C600809146
:107BA000C00085FFFCCF4092C6008091C00085FFD9
:107BB000FCCF3092C6008091C00085FFFCCFB09210
:107BC000C60088CF0E94763C863808F4BDCF0E945C
:107BD000763C0E94F33C7ECF0E94763C803809F4CC
:107BE0009CC0813809F40BC1823809F43CC1883942
:107BF00009F48FC080E00E94C73C6CCF84E10E94F2
:107C0000BD3C0E94F33C66CF85E00E94BD3C0E94D3
:107C1000F33C60CF0E94763C809306010E94763C44
:107C2000809307010E94F33C55CF0E94763C80333D
:107C300009F41DC183E00E94BD3C80E00E94C73C66
:107C400049CF0E94763C809309020E94763C809343
:107C5000080280910C028E7F80930C020E94763C79
:107C6000853409F415C18091080290910902892B8D
:107C700089F000E010E00E94763CF801E85FFE4FDA
:107C800080830F5F1F4F80910802909109020817AF
:107C9000190788F30E94763C803209F045CF809125
:107CA0000C0280FF01C16091060170910701660F0F
:107CB000771F7093070160930601A0910802B091AD
:107CC00009021097C9F0E8E0F1E09B01AD014E0F09
:107CD0005F1FF999FECF32BD21BD819180BDFA9A17
:107CE000F99A2F5F3F4FE417F50799F76A0F7B1F4B
:107CF00070930701609306018091C00085FFFCCF5F
:107D0000F092C6008091C00085FFFCCFB092C60003
:107D1000E1CE83E00E94C73CDDCE82E00E94C73CFA
:107D2000D9CE0E94763C809309020E94763C8093D3
:107D300008028091060190910701880F991F909386
:107D40000701809306010E94763C853409F4A6C0A1
:107D500080910C028E7F80930C020E94763C8032D0
:107D600009F0B8CE8091C00085FFFCCFF092C6002C
:107D7000609108027091090261157105B9F140E046
:107D800050E080910C02A82FA170B82FB27011C0E2
:107D9000BB2309F45CC0E0910601F0910701319624
:107DA000F0930701E09306014F5F5F4F46175707B7
:107DB000E8F4AA2369F3F999FECF209106013091E6
:107DC000070132BD21BDF89A90B58091C00085FFB2
:107DD000FCCF9093C6002F5F3F4F30930701209355
:107DE00006014F5F5F4F4617570718F38091C00099
:107DF00085FDE5CE8091C00085FFF8CFE0CE81E023
:107E00000E94C73C67CE0E94763C803209F08CCE3F
:107E10008091C00085FFFCCFF092C6008091C00029
:107E200085FFFCCFE092C6008091C00085FFFCCFAB
:107E3000D092C6008091C00085FFFCCFC092C600E2
:107E40008091C00085FFFCCFB092C60043CEE09188
:107E50000601F091070194918091C00085FFFCCF4D
:107E60009093C6009CCF80E10E94C73C33CE0E9415
:107E7000763C0E94763C182F0E94763C112309F430
:107E800083C0113009F484C08FE00E94C73C22CE29
:107E900080910C02816080930C02E5CE80910C02EF
:107EA000816080930C0259CF809107018823880F4D
:107EB000880B8A2180930B02809106019091070123
:107EC000880F991F90930701809306018091080203
:107ED00080FF09C080910802909109020196909359
:107EE000090280930802F894F999FECF1127E091D6
:107EF0000601F0910701C8E0D1E08091080290915D
:107F00000902103091F40091570001700130D9F34B
:107F100003E000935700E89500915700017001308D
:107F2000D9F301E100935700E89509901990009169
:107F3000570001700130D9F301E000935700E89534
:107F40001395103498F011270091570001700130FB
:107F5000D9F305E000935700E895009157000170B0
:107F60000130D9F301E100935700E895329602976A
:107F700009F0C7CF103011F00296E5CF112480919F
:107F8000C00085FFB9CEBCCE8EE10E94C73CA2CD19
:0C7F900085E90E94C73C9ECDF894FFCF0D
:027F9C00800063
:040000030000780081
:00000001FF