:100000000C9462000C948A000C948A000C948A0070
:100010000C948A000C948A000C948A000C948A0038
:100020000C948A000C948A000C948A000C948A0028
:100030000C948A000C948A000C948A000C948A0018
:100040000C9458030C948A000C9426030C9400031F
:100050000C948A000C948A000C948A000C948A00F8
:100060000C948A000C948A000000000023002600F3
:10007000290000000008000201000003040700003E
:1000800000000000000000000000250028002B00F8
:1000900000000000240027002A00040404040404D3
:1000A0000404020202020202030303030303010227
:1000B00004081020408001020408102001020408F6
:1000C0001020A20311241FBECFEFD8E0DEBFCDBFAA
:1000D00011E0A0E0B1E0EAECFCE002C005900D9276
:1000E000A633B107D9F722E0A6E3B1E001C01D9223
:1000F000A633B207E1F710E0C2E6D0E004C02197D2
:10010000FE010E943606C136D107C9F70E943304AA
:100110000C9463060C940000E7E4F1E0A089B18937
:1001200082E08C93A485B5851C92A685B7858FEC5B
:100130008C93108EA489B58986E08C93A289B389AB
:100140008C9180618C93A289B3898C9188608C9307
:10015000A289B3898C9180688C930288F389E02D01
:1001600080818F7D80830895CF93DF9390E0FC01A1
:10017000E255FF4F2491FC01E656FF4F84918823FE
:10018000C1F090E0880F991FFC01E057FF4FC59127
:10019000D491FC01EA57FF4FA591B4919FB7F89411
:1001A0008881E22FE0958E2388838C91E823EC935D
:1001B0009FBFDF91CF910895CF92DF92EF92FF9290
:1001C0000F931F93CF93DF936C017A018B01C0E0F3
:1001D000D0E0CE15DF0589F0D8016D918D01D601F3
:1001E000ED91FC910190F081E02DC6010995892BDC
:1001F00011F47E0102C02196ECCFC701DF91CF91AF
:100200001F910F91FF90EF90DF90CF900895FC0128
:10021000918D828D981761F0828DDF01A80FB11D3D
:100220005D968C91928D9F5F9F73928F90E0089561
:100230008FEF9FEF0895FC01918D828D981731F01B
:10024000828DE80FF11D858D90E008958FEF9FEF6F
:100250000895FC01918D228D892F90E0805C9F4F45
:10026000821B91098F739927089587E491E00E947A
:10027000290121E0892B09F420E0822F0895FC0157
:10028000848DDF01A80FB11DA35ABF4F2C91848D1F
:1002900090E001968F739927848FA689B7892C9354
:1002A000A089B1898C9180648C93938D848D9813EF
:1002B00006C00288F389E02D80818F7D80830895B8
:1002C000EF92FF920F931F93CF93DF93EC0181E0A6
:1002D000888F9B8D8C8D981305C0E889F989808162
:1002E00085FD24C0F62E0B8D10E00F5F1F4F0F739E
:1002F0001127E02E8C8DE8120CC00FB607FCFACF48
:10030000E889F989808185FFF5CFCE010E943F0100
:10031000F1CF8B8DFE01E80FF11DE35AFF4FF08204
:100320000B8FEA89FB898081806207C0EE89FF8993
:100330006083E889F98980818064808381E090E02E
:10034000DF91CF911F910F91FF90EF900895CF9380
:10035000DF93EC01888D8823C9F0EA89FB898081CD
:1003600085FD05C0A889B9898C9186FD0FC00FB69F
:1003700007FCF5CF808185FFF2CFA889B9898C91E0
:1003800085FFEDCFCE010E943F01E7CFDF91CF91F6
:10039000089580E090E0892B29F00E9435018111B9
:1003A0000C940000089590E0FC01EE58FF4F24915A
:1003B000FC01E255FF4F3491FC01E656FF4FE491FA
:1003C000EE23B9F1222339F1233091F038F42130B2
:1003D000A9F0223001F584B58F7D12C0273091F04D
:1003E0002830A1F02430B9F4809180008F7D03C0C3
:1003F000809180008F77809380000DC084B58F77C7
:1004000084BD09C08091B0008F7703C08091B00097
:100410008F7D8093B000F0E0EE0FFF1FE859FF4F93
:10042000A591B491EC913E2381E090E021F480E02D
:10043000089580E090E008953FB7F89480913B01E3
:1004400090913C01A0913D01B0913E0126B5A89B41
:1004500005C02F3F19F00196A11DB11D3FBFBA2F56
:10046000A92F982F8827820F911DA11DB11DBC01B6
:10047000CD0142E0660F771F881F991F4A95D1F77B
:1004800008958F929F92AF92BF92CF92DF92EF9298
:10049000FF926B017C010E941C024B015C01C114A4
:1004A000D104E104F104F1F00E941C02DC01CB0153
:1004B00088199909AA09BB09883E9340A105B1058D
:1004C00070F321E0C21AD108E108F10888EE880E25
:1004D00083E0981EA11CB11CC114D104E104F104F5
:1004E00019F7DDCFFF90EF90DF90CF90BF90AF90E6
:1004F0009F908F9008952FB7F89460913701709175
:1005000038018091390190913A012FBF08950F93DE
:100510001F93CF938C01FC0181810E94D30101972D
:1005200011F4C2E001C0C0E0F80182810E94D30151
:10053000019709F4CF5F8C2FCF911F910F910895F0
:100540000E943C066115710579F0FB0101900020C5
:10055000E9F73197AF01461B570BDC01ED91FC9198
:100560000280F381E02D099480E090E008954F929D
:100570005F926F927F92EF92FF920F931F93CF93B0
:10058000DF93CDB7DEB7A1970FB6F894DEBF0FBEED
:10059000CDBF7C01FA01CB0119A2223008F42AE078
:1005A0008E010F5D1F4F422E512C612C712CBF010B
:1005B000A30192010E944106F901CA0101501109EB
:1005C0006A3014F4605D01C0695CD8016C93232B20
:1005D000242B252B61F7B801C7010E94A202A19626
:1005E0000FB6F894DEBF0FBECDBFDF91CF911F9144
:1005F0000F91FF90EF907F906F905F904F900895D4
:100600001F920F920FB60F9211242F933F934F9387
:100610005F936F937F938F939F93AF93BF93EF936A
:10062000FF9387E491E00E943F01FF91EF91BF911A
:10063000AF919F918F917F916F915F914F913F917A
:100640002F910F900FBE0F901F9018951F920F9231
:100650000FB60F9211242F938F939F93EF93FF93D5
:10066000E0915701F09158018081E0915D01F09196
:100670005E0182FD12C09081809160018F5F8F7357
:1006800020916101821751F0E0916001F0E0E95B97
:10069000FE4F958F8093600101C08081FF91EF91A3
:1006A0009F918F912F910F900FBE0F901F901895D3
:1006B0001F920F920FB60F9211242F933F938F9397
:1006C0009F93AF93BF938091370190913801A09190
:1006D0003901B0913A013091360123E0230F2D37D3
:1006E00020F40196A11DB11D05C026E8230F029636
:1006F000A11DB11D209336018093370190933801DD
:10070000A0933901B0933A0180913B0190913C0153
:10071000A0913D01B0913E010196A11DB11D8093B4
:100720003B0190933C01A0933D01B0933E01BF91EA
:10073000AF919F918F913F912F910F900FBE0F908E
:100740001F90189510924A011092490188EE93E08B
:10075000A0E0B0E080934B0190934C01A0934D0139
:10076000B0934E0184E091E090934801809347015B
:1007700085EC90E0909354018093530184EC90E0D9
:10078000909356018093550180EC90E0909358012E
:100790008093570181EC90E090935A018093590126
:1007A00082EC90E090935C0180935B0186EC90E09A
:1007B00090935E0180935D0110926001109261013F
:1007C00010926201109263011092EA011092EB0103
:1007D0001092EC011092ED011092EE011092EF01D7
:1007E0001092F0011092F1011092F2011092F301B7
:1007F0001092F4011092F5011092F6011092F70197
:100800001092F8011092F9011092350285E0809360
:100810002C0283E080932D0284E080932E0282E0FC
:1008200080932F020E94B40080912D020E94B40098
:1008300080912E020E94B40080912F020E94D30169
:1008400021E0892B09F420E0209334028CE292E02D
:100850000E9487028093310280933002109233020B
:10086000109232020895789484B5826084BD84B574
:10087000816084BD85B5826085BD85B5816085BD9B
:1008800080916E00816080936E0010928100809153
:1008900081008260809381008091810081608093DB
:1008A0008100809180008160809380008091B10000
:1008B00084608093B1008091B00081608093B0002B
:1008C00080917A00846080937A0080917A008260BF
:1008D00080937A0080917A00816080937A00809181
:1008E0007A00806880937A001092C10010922802EA
:1008F0001092290210922A0210922B021092E60105
:100900001092E7011092E8011092E90160ED77E0A2
:1009100080E090E00E94410287E491E090932702FA
:10092000809326020E948C000E947B026093E60165
:100930007093E7018093E8019093E90160E171E031
:1009400080912602909127020E94A2026AE070E044
:1009500080E090E00E94410281E08093FA010E94D1
:100960008C0084EF882E99249394A12CB12CC1E0A3
:100970000E947B02672B682B692B41F40E947B024B
:10098000623071058105910508F40BC10E947B025C
:100990006093430170934401809345019093460115
:1009A000C0903F01D0904001E0904101F0904201A1
:1009B0006C157D058E059F0540F460933F01709393
:1009C00040018093410190934201C0903F01D0903B
:1009D0004001E0904101F09042019B01AC012C19D3
:1009E0003D094E095F0969017A013AEFC316D10446
:1009F000E104F10408F4D5C060933F017093400115
:100A000080934101909342018092F2019092F30110
:100A1000A092F401B092F5011092F6011092F70144
:100A20001092F8011092F9018091EA019091EB0186
:100A3000A091EC01B091ED018093EE019093EF0154
:100A4000A093F001B093F1010E947B026093EA0150
:100A50007093EB018093EC019093ED010E947B0277
:100A60006093E6017093E7018093E8019093E901B8
:100A70000E947B026B017C0162E271E080912602A0
:100A8000909127020E94A2022AE041E050E060E03B
:100A900070E080912602909127020E94B70269E2DD
:100AA00071E080912602909127020E94A2022AE022
:100AB000B701A60180912602909127020E94B702F9
:100AC0006BE271E080912602909127020E94A202BF
:100AD0008091EA019091EB01A091EC01B091ED01C0
:100AE000B701A601481B590B6A0B7B0B2AE08091CA
:100AF0002602909127020E94B7026BE271E080917A
:100B00002602909127020E94A2024091EA01509190
:100B1000EB016091EC017091ED018091EE019091FB
:100B2000EF01A091F001B091F101481B590B6A0B44
:100B30007B0B2AE080912602909127020E94B70247
:100B40006DE271E080912602909127020E94A2023C
:100B50000E947B02AB01BC012AE0809126029091A9
:100B600027020E94B702E0902602F09027026FE26F
:100B700071E0C7010E94A2026FE171E0C7010E940B
:100B8000A20265E070E080E090E00E9441020E94D5
:100B90007B026093EA017093EB018093EC019093E8
:100BA000ED0180913502882369F1C0903202D09026
:100BB00033020D2C000CEE08FF08F7FE14C0E09184
:100BC0004701F09148010190F081E02D6DE287E44A
:100BD00091E0099544275527BA014C195D096E0922
:100BE0007F092AE003C02AE0B701A60187E491E06B
:100BF0000E94B7026FE171E087E491E00E94A202D7
:100C0000109235028CE292E00E94870280933102BA
:100C100090913002981709F19330E9F4813069F42A
:100C200020913202309133022F5F3F4F30933302D5
:100C300020933202809335020EC0823061F42091FD
:100C40003202309133022150310930933302209324
:100C50003202C09335028093300261E070E080E0A0
:100C600090E00E9441020E94C90182CEEE0FFF1F58
:100C70000590F491E02D099481E090E0F8940C94B3
:100C80006306A1E21A2EAA1BBB1BFD010DC0AA1F01
:100C9000BB1FEE1FFF1FA217B307E407F50720F0E5
:100CA000A21BB30BE40BF50B661F771F881F991F60
:100CB0001A9469F760957095809590959B01AC01A9
:0A0CC000BD01CF010895F894FFCFA5
:100CCA00000000006001DC00290107011B01A701E7
:100CDA00564D4450565F317C315F564D4450560D47
:100CEA000A00564D4450455F003A323A007C005F94
:060CFA00564D4450450078
:00000001FF
