:100000000C9462000C948A000C948A000C948A0070
:100010000C948A000C948A000C948A000C948A0038
:100020000C948A000C948A000C948A000C948A0028
:100030000C948A000C948A000C948A000C948A0018
:100040000C947E030C948A000C944C030C942603AD
:100050000C948A000C948A000C948A000C948A00F8
:100060000C948A000C948A000000000023002600F3
:10007000290000000008000201000003040700003E
:1000800000000000000000000000250028002B00F8
:1000900000000000240027002A00040404040404D3
:1000A0000404020202020202030303030303010227
:1000B00004081020408001020408102001020408F6
:1000C0001020C80311241FBECFEFD8E0DEBFCDBF84
:1000D00011E0A0E0B1E0ECE4FCE002C005900D927C
:1000E000A633B107D9F722E0A6E3B1E001C01D9223
:1000F000A033B207E1F710E0C2E6D0E004C02197D8
:10010000FE010E94F705C136D107C9F70E94070416
:100110000C9424060C940000EBE4F1E0A089B18972
:1001200082E08C93A485B5851C92A685B7858FEC5B
:100130008C93108EA489B58986E08C93A289B389AB
:100140008C9180618C93A289B3898C9188608C9307
:10015000A289B3898C9180688C930288F389E02D01
:1001600080818F7D80830895CF93DF9390E0FC01A1
:10017000E255FF4F2491FC01E656FF4F84918823FE
:10018000C1F090E0880F991FFC01E057FF4FC59127
:10019000D491FC01EA57FF4FA591B4919FB7F89411
:1001A0008881E22FE0958E2388838C91E823EC935D
:1001B0009FBFDF91CF910895CF92DF92EF92FF9290
:1001C0000F931F93CF93DF936C017A018B01C0E0F3
:1001D000D0E0CE15DF0589F0D8016D918D01D601F3
:1001E000ED91FC910190F081E02DC6010995892BDC
:1001F00011F47E0102C02196ECCFC701DF91CF91AF
:100200001F910F91FF90EF90DF90CF900895FC0128
:10021000918D828D981761F0828DDF01A80FB11D3D
:100220005D968C91928D9F5F9F73928F90E0089561
:100230008FEF9FEF0895FC01918D828D981731F01B
:10024000828DE80FF11D858D90E008958FEF9FEF6F
:100250000895FC01918D228D892F90E0805C9F4F45
:10026000821B91098F73992708958BE491E00E9476
:10027000290121E0892B09F420E0822F0895FC0157
:10028000848DDF01A80FB11DA35ABF4F2C91848D1F
:1002900090E001968F739927848FA689B7892C9354
:1002A000A089B1898C9180648C93938D848D9813EF
:1002B00006C00288F389E02D80818F7D80830895B8
:1002C000EF92FF920F931F93CF93DF93EC0181E0A6
:1002D000888F9B8D8C8D981305C0E889F989808162
:1002E00085FD24C0F62E0B8D10E00F5F1F4F0F739E
:1002F0001127E02E8C8DE8120CC00FB607FCFACF48
:10030000E889F989808185FFF5CFCE010E943F0100
:10031000F1CF8B8DFE01E80FF11DE35AFF4FF08204
:100320000B8FEA89FB898081806207C0EE89FF8993
:100330006083E889F98980818064808381E090E02E
:10034000DF91CF911F910F91FF90EF900895CF9380
:10035000DF93EC01888D8823C9F0EA89FB898081CD
:1003600085FD05C0A889B9898C9186FD0FC00FB69F
:1003700007FCF5CF808185FFF2CFA889B9898C91E0
:1003800085FFEDCFCE010E943F01E7CFDF91CF91F6
:10039000089580E090E0892B29F00E9435018111B9
:1003A0000C940000089590E0FC01EE58FF4F24915A
:1003B000FC01E255FF4F3491FC01E656FF4FE491FA
:1003C000EE23B9F1222339F1233091F038F42130B2
:1003D000A9F0223001F584B58F7D12C0273091F04D
:1003E0002830A1F02430B9F4809180008F7D03C0C3
:1003F000809180008F77809380000DC084B58F77C7
:1004000084BD09C08091B0008F7703C08091B00097
:100410008F7D8093B000F0E0EE0FFF1FE859FF4F93
:10042000A591B491EC913E2381E090E021F480E02D
:10043000089580E090E008953FB7F89480913B01E3
:1004400090913C01A0913D01B0913E0126B5A89B41
:1004500005C02F3F19F00196A11DB11D3FBFBA2F56
:10046000A92F982F8827820F911DA11DB11DBC01B6
:10047000CD0142E0660F771F881F991F4A95D1F77B
:1004800008958F929F92AF92BF92CF92DF92EF9298
:10049000FF926B017C010E941C024B015C01C114A4
:1004A000D104E104F104F1F00E941C02DC01CB0153
:1004B00088199909AA09BB09883E9340A105B1058D
:1004C00070F321E0C21AD108E108F10888EE880E25
:1004D00083E0981EA11CB11CC114D104E104F104F5
:1004E00019F7DDCFFF90EF90DF90CF90BF90AF90E6
:1004F0009F908F9008952FB7F89460913701709175
:1005000038018091390190913A012FBF08950E94DE
:10051000FD056115710579F0FB0101900020E9F7F7
:100520003197AF01461B570BDC01ED91FC91028026
:10053000F381E02D099480E090E008954F925F925E
:100540006F927F92EF92FF920F931F93CF93DF935F
:10055000CDB7DEB7A1970FB6F894DEBF0FBECDBF03
:100560007C01FA01CB0119A2223008F42AE08E01A5
:100570000F5D1F4F422E512C612C712CBF01A30126
:1005800092010E940206F901CA01015011096A3064
:1005900014F4605D01C0695CD8016C93232B242B9B
:1005A000252B61F7B801C7010E948902A1960FB6F9
:1005B000F894DEBF0FBECDBFDF91CF911F910F9199
:1005C000FF90EF907F906F905F904F900895CF9243
:1005D000DF92EF92FF92CF93DF936C01990FEE08B9
:1005E000FF08F7FE1CC0E0914B01F0914C01019017
:1005F000F081E02D6DE28BE491E00995EC01442758
:100600005527BA014C195D096E097F092AE08BE470
:1006100091E00E949E027C01EC0EFD1E08C02AE0C3
:10062000B701A6018BE491E00E949E027C016FE17C
:1006300071E08BE491E00E9489028E0D9F1DDF9195
:10064000CF91FF90EF90DF90CF9008951F920F927F
:100650000FB60F9211242F933F934F935F936F9395
:100660007F938F939F93AF93BF93EF93FF938BE40D
:1006700091E00E943F01FF91EF91BF91AF919F9157
:100680008F917F916F915F914F913F912F910F903B
:100690000FBE0F901F9018951F920F920FB60F92DA
:1006A00011242F938F939F93EF93FF93E0915B011E
:1006B000F0915C018081E0916101F091620182FD25
:1006C00012C09081809164018F5F8F7320916501CA
:1006D000821751F0E0916401F0E0E55BFE4F958FE9
:1006E0008093640101C08081FF91EF919F918F9170
:1006F0002F910F900FBE0F901F9018951F920F9281
:100700000FB60F9211242F933F938F939F93AF9324
:10071000BF938091370190913801A0913901B09138
:100720003A013091360123E0230F2D3720F4019652
:10073000A11DB11D05C026E8230F0296A11DB11D04
:10074000209336018093370190933801A0933901AB
:10075000B0933A0180913B0190913C01A0913D0101
:10076000B0913E010196A11DB11D80933B01909374
:100770003C01A0933D01B0933E01BF91AF919F9189
:100780008F913F912F910F900FBE0F901F90189552
:10079000EBE4F1E01382128288EE93E0A0E0B0E097
:1007A00084839583A683B78384E091E091838083DB
:1007B00085EC90E09587848784EC90E09787868726
:1007C00080EC90E0918B808B81EC90E0938B828B1E
:1007D00082EC90E0958B848B86EC90E0978B868BF7
:1007E000118E128E138E148EE8EEF1E016821782AF
:1007F000108611861286138614861586168617862D
:10080000108A118A128A138A148A158A0895789494
:1008100084B5826084BD84B5816084BD85B5826005
:1008200085BD85B5816085BD80916E0081608093B6
:100830006E0010928100809181008260809381001F
:10084000809181008160809381008091800081602F
:10085000809380008091B10084608093B10080918A
:10086000B00081608093B00080917A0084608093B2
:100870007A0080917A00826080937A0080917A0079
:10088000816080937A0080917A00806880937A00FA
:100890001092C10010922C0210922D0210922E0282
:1008A00010922F021092EA011092EB011092EC01CB
:1008B0001092ED0160ED77E080E090E00E9441024F
:1008C0008BE491E090932B0280932A020E948C008B
:1008D0000E947B026093EA017093EB018093EC012C
:1008E0009093ED0160E171E080912A0290912B02DA
:1008F0000E9489026AE070E080E090E00E9441027C
:1009000081E08093FE010E948C0082E00E94B4008E
:1009100083E00E94B40084E00E94B4001092400181
:1009200010923F0183E090E0909342018093410157
:1009300084EFC82EDD24D394E12CF12C0E947B029D
:10094000672B682B692B41F40E947B026230710592
:100950008105910508F40BC10E947B026093470159
:10096000709348018093490190934A01809043011C
:1009700090904401A0904501B0904601681579051A
:100980008A059B0540F46093430170934401809372
:100990004501909346018090430190904401A090BE
:1009A0004501B09046019B01AC01281939094A095B
:1009B0005B0949015A013AEF83169104A104B1047D
:1009C00008F4D5C0609343017093440180934501BE
:1009D00090934601C092F601D092F701E092F8019F
:1009E000F092F9011092FA011092FB011092FC01B1
:1009F0001092FD018091EE019091EF01A091F00124
:100A0000B091F1018093F2019093F301A093F4016E
:100A1000B093F5010E947B026093EE017093EF01A9
:100A20008093F0019093F1010E947B026093EA01B0
:100A30007093EB018093EC019093ED010E947B0297
:100A40004B015C0162E271E080912A0290912B02DD
:100A50000E9489022AE041E050E060E070E080916D
:100A60002A0290912B020E949E0269E271E080911D
:100A70002A0290912B020E9489022AE0B501A4016A
:100A800080912A0290912B020E949E026BE271E0FB
:100A900080912A0290912B020E9489028091EE019E
:100AA0009091EF01A091F001B091F101B501A40185
:100AB000481B590B6A0B7B0B2AE080912A0290910C
:100AC0002B020E949E026BE271E080912A029091BB
:100AD0002B020E9489024091EE015091EF0160913A
:100AE000F0017091F1018091F2019091F301A091D8
:100AF000F401B091F501481B590B6A0B7B0B2AE0FE
:100B000080912A0290912B020E949E026DE271E078
:100B100080912A0290912B020E9489020E947B02FE
:100B2000AB01BC012AE080912A0290912B020E9425
:100B30009E02C0912A02D0912B026FE271E0CE0199
:100B40000E9489026FE171E0CE010E94890265E096
:100B500070E080E090E00E9441020E947B0260937E
:100B6000EE017093EF018093F0019093F10182E028
:100B70000E94D30183E00E94D301EC0184E00E9433
:100B8000D301219711F4C2E001C0C0E0019709F43C
:100B9000CF5FD0E080914101909142018C179D0779
:100BA000E9F00397B9F4C130D10531F480913F01E8
:100BB00090914001019608C0C230D10559F480914E
:100BC0003F019091400101979093400180933F0134
:100BD0000E94E702D0934201C093410161E070E0BE
:100BE00080E090E00E9441020E94C901A7CEEE0F72
:100BF000FF1F0590F491E02D099481E090E0F894B6
:100C00000C942406A1E21A2EAA1BBB1BFD010DC0E9
:100C1000AA1FBB1FEE1FFF1FA217B307E407F507AC
:100C200020F0A21BB30BE40BF50B661F771F881F88
:100C3000991F1A9469F760957095809590959B011E
:0C0C4000AC01BD01CF010895F894FFCF76
:100C4C00000000006001DC00290107011B01A70165
:100C5C00564D4450565F317C315F564D4450560DC5
:100C6C000A00564D4450455F003A323A007C005F12
:060C7C00564D44504500F6
:107800000C94343C0C94513C0C94513C0C94513CE1
:107810000C94513C0C94513C0C94513C0C94513CB4
:107820000C94513C0C94513C0C94513C0C94513CA4
:107830000C94513C0C94513C0C94513C0C94513C94
:107840000C94513C0C94513C0C94513C0C94513C84
:107850000C94513C0C94513C0C94513C0C94513C74
:107860000C94513C0C94513C11241FBECFEFD8E036
:10787000DEBFCDBF11E0A0E0B1E0ECE9FFE702C060
:1078800005900D92A230B107D9F712E0A2E0B1E065
:1078900001C01D92AD30B107E1F70E942D3D0C945F
:1078A000CC3F0C94003C982F959595959595959582
:1078B000905D8F708A307CF0282F295A8091C0000B
:1078C00085FFFCCF9093C6008091C00085FFFCCF60
:1078D0002093C6000895282F205DF0CF982F809127
:1078E000C00085FFFCCF9093C6000895EF92FF92F1
:1078F0000F931F93EE24FF2487018091C00087FD22
:1079000017C00894E11CF11C011D111D81E4E8164B
:1079100082E4F8068FE0080780E0180770F3E09132
:107920000401F091050109958091C00087FFE9CF1E
:107930008091C6001F910F91FF90EF9008950E94D3
:10794000763C982F8091C00085FFFCCF9093C600B5
:1079500091362CF490330CF09053892F089597555D
:10796000892F08951F930E949F3C182F0E949F3CCF
:107970001295107F810F1F9108951F93182F882350
:1079800021F00E94763C1150E1F71F9108951F935A
:10799000182F0E94763C803249F0809103018F5F5E
:1079A000809303018530C1F01F9108958091C0003C
:1079B00085FFFCCF84E18093C6008091C00085FFE5
:1079C000FCCF1093C6008091C00085FFFCCF80E102
:1079D0008093C6001F910895E0910401F091050184
:1079E00009951F9108950E94763C803241F0809164
:1079F00003018F5F80930301853081F008958091AA
:107A0000C00085FFFCCF84E18093C6008091C00058
:107A100085FFFCCF80E18093C6000895E0910401CA
:107A2000F09105010995089540E951E08823A1F0FE
:107A30002D9A28EE33E0FA013197F1F721503040CA
:107A4000D1F72D9828EE33E0FA013197F1F7215064
:107A50003040D1F7815061F708953F924F925F9285
:107A60006F927F928F929F92AF92BF92CF92DF924E
:107A7000EF92FF920F931F93CF93DF93000080E16B
:107A80008093C4001092C50088E18093C10086E015
:107A90008093C2005098589A259A81E00E94143D24
:107AA00024E1F22E9EE1E92E85E9D82E0FE0C02ECA
:107AB00010E1B12EAA24A394B1E49B2EA6E58A2E50
:107AC000F2E57F2EE0E26E2E79E4572E63E5462E36
:107AD00050E5352E0E94763C8033B1F18133B9F107
:107AE000803409F46FC0813409F476C0823409F41B
:107AF00085C0853409F488C0803531F1823521F1A3
:107B0000813511F1853509F485C0863509F48DC0BC
:107B1000843609F496C0843709F403C1853709F423
:107B200072C1863709F466C0809103018F5F80932C
:107B30000301853079F6E0910401F0910501099582
:107B40000E94763C803351F60E94F33CC3CF0E94E2
:107B5000763C803249F78091C00085FFFCCFF092DF
:107B6000C6008091C00085FFFCCF9092C600809136
:107B7000C00085FFFCCF8092C6008091C00085FFC9
:107B8000FCCF7092C6008091C00085FFFCCF609250
:107B9000C6008091C00085FFFCCF5092C600809146
:107BA000C00085FFFCCF4092C6008091C00085FFD9
:107BB000FCCF3092C6008091C00085FFFCCFB09210
:107BC000C60088CF0E94763C863808F4BDCF0E945C
:107BD000763C0E94F33C7ECF0E94763C803809F4CC
:107BE0009CC0813809F40BC1823809F43CC1883942
:107BF00009F48FC080E00E94C73C6CCF84E10E94F2
:107C0000BD3C0E94F33C66CF85E00E94BD3C0E94D3
:107C1000F33C60CF0E94763C809306010E94763C44
:107C2000809307010E94F33C55CF0E94763C80333D
:107C300009F41DC183E00E94BD3C80E00E94C73C66
:107C400049CF0E94763C809309020E94763C809343
:107C5000080280910C028E7F80930C020E94763C79
:107C6000853409F415C18091080290910902892B8D
:107C700089F000E010E00E94763CF801E85FFE4FDA
:107C800080830F5F1F4F80910802909109020817AF
:107C9000190788F30E94763C803209F045CF809125
:107CA0000C0280FF01C16091060170910701660F0F
:107CB000771F7093070160930601A0910802B091AD
:107CC00009021097C9F0E8E0F1E09B01AD014E0F09
:107CD0005F1FF999FECF32BD21BD819180BDFA9A17
:107CE000F99A2F5F3F4FE417F50799F76A0F7B1F4B
:107CF00070930701609306018091C00085FFFCCF5F
:107D0000F092C6008091C00085FFFCCFB092C60003
:107D1000E1CE83E00E94C73CDDCE82E00E94C73CFA
:107D2000D9CE0E94763C809309020E94763C8093D3
:107D300008028091060190910701880F991F909386
:107D40000701809306010E94763C853409F4A6C0A1
:107D500080910C028E7F80930C020E94763C8032D0
:107D600009F0B8CE8091C00085FFFCCFF092C6002C
:107D7000609108027091090261157105B9F140E046
:107D800050E080910C02A82FA170B82FB27011C0E2
:107D9000BB2309F45CC0E0910601F0910701319624
:107DA000F0930701E09306014F5F5F4F46175707B7
:107DB000E8F4AA2369F3F999FECF209106013091E6
:107DC000070132BD21BDF89A90B58091C00085FFB2
:107DD000FCCF9093C6002F5F3F4F30930701209355
:107DE00006014F5F5F4F4617570718F38091C00099
:107DF00085FDE5CE8091C00085FFF8CFE0CE81E023
:107E00000E94C73C67CE0E94763C803209F08CCE3F
:107E10008091C00085FFFCCFF092C6008091C00029
:107E200085FFFCCFE092C6008091C00085FFFCCFAB
:107E3000D092C6008091C00085FFFCCFC092C600E2
:107E40008091C00085FFFCCFB092C60043CEE09188
:107E50000601F091070194918091C00085FFFCCF4D
:107E60009093C6009CCF80E10E94C73C33CE0E9415
:107E7000763C0E94763C182F0E94763C112309F430
:107E800083C0113009F484C08FE00E94C73C22CE29
:107E900080910C02816080930C02E5CE80910C02EF
:107EA000816080930C0259CF809107018823880F4D
:107EB000880B8A2180930B02809106019091070123
:107EC000880F991F90930701809306018091080203
:107ED00080FF09C080910802909109020196909359
:107EE000090280930802F894F999FECF1127E091D6
:107EF0000601F0910701C8E0D1E08091080290915D
:107F00000902103091F40091570001700130D9F34B
:107F100003E000935700E89500915700017001308D
:107F2000D9F301E100935700E89509901990009169
:107F3000570001700130D9F301E000935700E89534
:107F40001395103498F011270091570001700130FB
:107F5000D9F305E000935700E895009157000170B0
:107F60000130D9F301E100935700E895329602976A
:107F700009F0C7CF103011F00296E5CF112480919F
:107F8000C00085FFB9CEBCCE8EE10E94C73CA2CD19
:0C7F900085E90E94C73C9ECDF894FFCF0D
:027F9C00800063
:040000030000780081
:00000001FF